:020000040800F2
:1000000000000220696000087D1C00087F1C0008B9
:10001000811C0008831C0008851C000800000000EB
:10002000000000000000000000000000871C000825
:10003000891C0008000000008B1C00088D1C0008B3
:10004000B9600008B9600008B9600008B96000082C
:10005000B9600008B9600008B9600008B96000081C
:10006000B9600008B9600008B9600008B96000080C
:10007000B9600008B9600008B9600008B9600008FC
:10008000B9600008B9600008B9600008B9600008EC
:10009000B9600008B9600008B9600008B9600008DC
:1000A000B9600008B9600008B9600008B9600008CC
:1000B000B9600008B9600008B9600008B9600008BC
:1000C000B9600008B9600008B9600008B9600008AC
:1000D000B9600008B9600008B9600008B96000089C
:1000E000B9600008B9600008B9600008B96000088C
:1000F000B9600008B9600008B9600008B96000087C
:10010000B9600008B9600008B9600008B96000086B
:10011000B9600008B9600008B9600008B96000085B
:10012000B9600008B9600008B9600008B96000084B
:10013000B9600008B9600008B9600008B96000083B
:10014000B9600008B9600008B9600008951C000893
:10015000B9600008B9600008B9600008B96000081B
:10016000B9600008B9600008B9600008B96000080B
:10017000B9600008B9600008B9600008000000001C
:08018000B9600008B960000835
:1001880010B5054C237833B9044B13B10448AFF3C9
:1001980000800123237010BDAC0000200000000087
:1001A800B462000808B5034B1BB103490348AFF319
:1001B800008008BD00000000B0000020B462000804
:1001C80081F0004102E000BF83F0004330B54FEA00
:1001D80041044FEA430594EA050F08BF90EA020F6D
:1001E8001FBF54EA000C55EA020C7FEA645C7FEA00
:1001F800655C00F0E2804FEA5454D4EB5555B8BF23
:100208006D420CDD2C4480EA020281EA030382EA93
:10021800000083EA010180EA020281EA0303362D25
:1002280088BF30BD11F0004F4FEA01314FF4801CF8
:100238004CEA113102D0404261EB410113F0004F0A
:100248004FEA03334CEA133302D0524263EB4303C1
:1002580094EA050F00F0A780A4F10104D5F1200E5F
:100268000DDB02FA0EFC22FA05F2801841F10001BA
:1002780003FA0EF2801843FA05F359410EE0A5F18E
:1002880020050EF1200E012A03FA0EFC28BF4CF0BF
:10029800020C43FA05F3C01851EBE37101F0004575
:1002A80007D54FF0000EDCF1000C7EEB00006EEB82
:1002B8000101B1F5801F1BD3B1F5001F0CD349080C
:1002C8005FEA30004FEA3C0C04F101044FEA445263
:1002D80012F5800F80F09A80BCF1004F08BF5FEAEA
:1002E800500C50F1000041EB045141EA050130BDCA
:1002F8005FEA4C0C404141EB010111F4801FA4F16D
:100308000104E9D191F0000F04BF01460020B1FAC1
:1003180081F308BF2033A3F10B03B3F120020CDAF9
:100328000C3208DD02F1140CC2F10C0201FA0CF0D7
:1003380021FA02F10CE002F11402D8BFC2F1200C3C
:1003480001FA02F120FA0CFCDCBF41EA0C019040F2
:10035800E41AA2BF01EB0451294330BD6FEA04043B
:100368001F3C1CDA0C340EDC04F11404C4F1200226
:1003780020FA04F001FA02F340EA030021FA04F338
:1003880045EA030130BDC4F10C04C4F1200220FA8F
:1003980002F001FA04F340EA0300294630BD21FACD
:1003A80004F0294630BD94F0000F83F4801306BF93
:1003B80081F480110134013D4EE77FEA645C18BF87
:1003C8007FEA655C29D094EA050F08BF90EA020F1E
:1003D80005D054EA000C04BF1946104630BD91EA16
:1003E800030F1EBF0021002030BD5FEA545C05D119
:1003F8004000494128BF41F0004130BD14F5800458
:100408003CBF01F5801130BD01F0004545F0FE41CB
:1004180041F470014FF0000030BD7FEA645C1ABF00
:10042800194610467FEA655C1CBF0B46024650EA37
:10043800013406BF52EA033591EA030F41F4002163
:1004480030BD00BF90F0000F04BF0021704730B5E9
:100458004FF4806404F132044FF000054FF00001BE
:1004680050E700BF90F0000F04BF0021704730B57F
:100478004FF4806404F1320410F0004548BF404254
:100488004FF000013EE700BF42004FEAE2014FEAA9
:1004980031014FEA02701FBF12F07F4393F07F4F84
:1004A80081F06051704732F07F4208BF704793F087
:1004B8007F4F04BF41F40021704730B54FF460749A
:1004C80001F0004521F000411CE700BF50EA01029D
:1004D80008BF704730B54FF000050AE050EA010246
:1004E80008BF704730B511F0004502D5404261EBB6
:1004F80041014FF4806404F132045FEA915C3FF4F7
:10050800D8AE4FF003025FEADC0C18BF03325FEA93
:10051800DC0C18BF033202EBDC02C2F1200300FA44
:1005280003FC20FA02F001FA03FE40EA0E0021FA69
:1005380002F11444BDE600BF4FF0FF3C06E000BFE7
:100548004FF0010C02E000BF4FF0010C4DF804CD54
:100558004FEA410C7FEA6C5C4FEA430C18BF7FEA14
:100568006C5C1BD001B050EA410C0CBF52EA430C42
:1005780091EA030F02BF90EA020F0020704710F1C2
:10058800000F91EA030F58BF994208BF90422CBF51
:10059800D8176FEAE37040F0010070474FEA410C4A
:1005A8007FEA6C5C02D150EA013C07D14FEA430C68
:1005B8007FEA6C5CD6D152EA033CD3D05DF8040BD9
:1005C800704700BF8446104662468C46194663460B
:1005D80000E000BF01B5FFF7B7FF002848BF10F1E2
:1005E800000F01BD4DF808EDFFF7F4FF0CBF012027
:1005F80000205DF808FB00BF4DF808EDFFF7EAFFA3
:1006080034BF012000205DF808FB00BF4DF808ED5D
:10061800FFF7E0FF94BF012000205DF808FB00BF52
:100628004DF808EDFFF7CEFF94BF012000205DF8DC
:1006380008FB00BF4DF808EDFFF7C4FF34BF0120E9
:1006480000205DF808FB00BF53B94AB9002908BF6C
:1006580000281CBF4FF0FF314FF0FF3000F072B997
:10066800ADF1080C6DE904CE00F006F8DDF804E001
:10067800DDE9022304B070472DE9F047089E0446DF
:100688008846002B4BD18A42154667D9B2FA82F2C6
:100698004AB1C2F1200701FA02F320FA07F79540A0
:1006A80047EA030894404FEA154E230CB8FBFEF7BF
:1006B8001FFA85FC0EFB178843EA084307FB0CF179
:1006C800994209D9EB1807F1FF3080F01B81994254
:1006D80040F21881023F2B445B1AA4B2B3FBFEF030
:1006E8000EFB103344EA034400FB0CFCA44509D973
:1006F8002C1900F1FF3380F00781A44540F20481F2
:1007080002382C4440EA0740A4EB0C0400271EB131
:10071800D4400023C6E900433946BDE8F0878B4240
:1007280009D9002E00F0EB800027C6E90001384601
:100738003946BDE8F087B3FA83F7002F47D18B42DB
:1007480002D3824200F2FA80841A61EB030301208B
:100758009846002EE0D0C6E90048DDE702B9FFDE82
:10076800B2FA82F2002A40F08F80491B4FEA154EF8
:100778001FFA85F80127B1FBFEFC230C0EFB1C11A8
:1007880043EA014308FB0CF1994207D9EB180CF135
:10079800FF3002D2994200F2CD808446591AA3B2A2
:1007A800B1FBFEF00EFB101443EA044408FB00F80A
:1007B800A04507D92C1900F1FF3302D2A04500F259
:1007C800B6801846A4EB080440EA0C409FE7C7F13E
:1007D800200CBB4022FA0CFE4EEA030E01FA07F485
:1007E80020FA0CF521FA0CF34FEA1E482543B3FB17
:1007F800F8F92C0C08FB19331FFA8EFA44EA034364
:1008080009FB0AF49C4202FA07F200FA07F10BD935
:100818001EEB030309F1FF3080F087809C4240F211
:100828008480A9F1020973441B1BADB2B3FBF8F035
:1008380008FB103345EA034400FB0AFAA24508D92D
:100848001EEB040400F1FF336BD2A24569D90238CC
:10085800744440EA0940A0FB0289A4EB0A044C4511
:10086800C2464B4654D351D0002E69D0B1EB0A058D
:1008780064EB030404FA0CFCFD40FC404CEA05055B
:10088800C6E90054002747E7C2F1200320FA03F71E
:10089800954001FA02F021FA03F34FEA154E384366
:1008A800010CB3FBFEF71FFA85F80EFB173341EA7C
:1008B800034107FB08F38B4204FA02F407D96918CD
:1008C80007F1FF3C2FD28B422DD9023F2944CB1A86
:1008D80081B2B3FBFEF00EFB103341EA034100FB8B
:1008E80008F38B4207D9691800F1FF3C17D28B42F5
:1008F80015D902382944C91A40EA07473BE7374661
:10090800304609E70746E7E61846FBE64145ABD21D
:10091800B8EB020A69EB0E0201381346A4E76046F9
:10092800E9E7184695E76746D1E781467CE702384C
:100938002C4447E7ACF1020C2B442FE7384608E774
:100948003746E9E6704700BF00B583B08DF804105C
:100958008DF80520022301AA8178806900F0CBFE7A
:1009680003B05DF804FB00B583B08DF80410130ADA
:100978008DF805308DF80620032301AA8178806957
:1009880000F0B9FE03B05DF804FB00B583B08DF844
:100998000010130E8DF80130C2F307438DF80230B2
:1009A800C2F307238DF803308DF8042005236A4627
:1009B8008178806900F09FFE03B05DF804FB10B5F4
:1009C80084B0044604AA02F8091D012381788069CD
:1009D80000F091FE01230DF10F02A178A06900F04B
:1009E80081FE9DF80F0004B010BD10B584B0044618
:1009F80004AA02F8091D01238178806900F07BFEB2
:100A0800022303AAA178A06900F06CFE9DF80C00EF
:100A18009DF80D3043EA002004B010BD70B582B0D7
:100A2800044615461E4602AA02F8011D01238178D4
:100A3800806900F060FE33462A46A178A06900F07C
:100A48005AFE02B070BD70B582B0044615461E4607
:100A580002AA02F8011D01238178806900F04BFE8B
:100A680033462A46A178A06900F03CFE02B070BD6A
:100A7800B5EEC00AF1EE10FA22D410B52DED028BB6
:100A8800B0EE408A044610EE100AFFF7FDFC0FA3F3
:100A9800D3E90023FFF7CEFD18B10020BDEC028B8F
:100AA80010BD9FED090A28EE000ABCEEC00A10EE40
:100AB800103A9AB244212046FFF755FF0120EDE78E
:100AC80000207047AFF3008000000043A4703D0A87
:100AD800D7FF7F4008B519B1012909D0FF2008BD0B
:100AE8005021FFF76CFF0130C0B24000C0B2F6E7FA
:100AF8007021FFF764FF0130C0B24000C0B2EEE7DA
:100B080038B504460D4601228021FFF71DFF01225A
:100B1800FF212046FFF718FF002211462046FFF765
:100B280013FF227C91212046FFF70EFF01220021AE
:100B38002046FFF709FF0022FF212046FFF704FFA8
:100B4800002280212046FFF7FFFE8DB1F8212046C4
:100B5800FFF74BFF08B100FB05F52A4604212046A4
:100B6800FFF713FF042200212046FFF7EDFE38BDF2
:100B7800022200212046FFF7E7FEF8E70346007A45
:100B880000221A72704710B50C460121FFF717FFB3
:100B9800C0F300132370C0F3C003A370C0F3800335
:100BA8006370C0F38013E370C0F3C710003018BF40
:100BB8000120207110BDC3B2000A03FA00F080B210
:100BC800013080B2704768B10138002302E0400864
:100BD80001339BB230F0FF02F9D11B029BB2C0B2C5
:100BE8001843704770470000074B03FB01F101F5FC
:100BF800FA71064AA2FB01318B09C90903FB0010EF
:100C0800A2FB003080097047002F3A00D34D6210D4
:100C180070B505460E4614460021FFF75BFF20809D
:100C280046212846FFF7CBFE80B2013080B2A08073
:100C38002178FFF7D9FFE06051212846FFF7D5FE5C
:100C4800FFF7B9FFE0802178FFF7CEFF206101218F
:100C58002846FFF73FFF608071212846FFF7C5FE51
:100C6800FFF7A9FF2081F37813B1E388C01A208128
:100C7800A1782089FFF7B8FF606170BD10B588B012
:100C8800044606A9FFF77FFF6A4606A92046FFF734
:100C9800BFFF9DF81830DBB1039800F684509DF82B
:100CA8001A30C3B1039B03F2B22300EB43009DF853
:100CB8001B301BB1049B184400F525709DF81C30AF
:100CC8001BB1059B184400F22620606108B010BDD6
:100CD80040F63630E3E79DF81930002BE7D0039B48
:100CE800184400F52570E2E7084B03FB01F101F514
:100CF800FA71074BA3FB01318A09C9094FF47A73CA
:100D080003FB0010B0FBF2F0704700BF002F3A0061
:100D1800D34D6210F0B589B044F61F63994203D8E9
:100D28000024204609B0F0BD0D46064606A9FFF787
:100D38002AFF6A4606A93046FFF76AFF9DF8183071
:100D480063B3039B03F636339DF81A204AB3039A1C
:100D580002F2B22203EB42039DF81B701FB1049804
:100D6800034403F525739DF81C401CB303F22623A6
:100D78009D4221D39DF80210E81AFFF7B5FF80B213
:100D88001FB1BDF80630184480B2FFF71CFF0246B9
:100D980071213046FFF7E7FD7561C2E740F6E803C9
:100DA800D2E79DF81920002AD6D00398034403F50A
:100DB8002573D1E70124B4E70024B2E710B504464F
:100DC80000F0E2FFE06010BD43680BB900207047F7
:100DD80010B5044600F0D8FFE368C01A636898426B
:100DE80001D8002010BD0120FCE738B50446FFF704
:100DF800E5FF13212046FFF7E2FD10F0070F09D1A8
:100E08002046FFF7E1FF0028F3D0012323724FF6B5
:100E1800FF7509E01E212046FFF7E7FD0546012280
:100E28000B212046FFF790FD284638BD70B50446D3
:100E38000E46154601228021FFF786FD0122FF217B
:100E48002046FFF781FD002211462046FFF77CFD72
:100E58000622FF212046FFF777FD83212046FFF772
:100E6800AEFD40F00402D2B283212046FFF76CFDAC
:100E78000722FF212046FFF767FD01228121204636
:100E8800FFF762FD012280212046FFF75DFD6B22FE
:100E980094212046FFF758FD002283212046FFF7C2
:100EA80053FD2046FFF78AFF83212046FFF787FD81
:100EB80030B92046FFF788FF0028F5D000203AE037
:100EC800012283212046FFF73FFD92212046FFF7AC
:100ED80076FD00F07F033370C0F3C710003018BFF1
:100EE80001202870002281212046FFF72DFD0622CF
:100EF800FF212046FFF728FD83212046FFF75FFDED
:100F080000F0FB0283212046FFF71EFD0122FF218E
:100F18002046FFF719FD012200212046FFF714FDA6
:100F28000022FF212046FFF70FFD002280212046E6
:100F3800FFF70AFD012070BD10B5044641F001021B
:100F48000021FFF701FD2046FFF738FF1321204657
:100F5800FFF735FD10F0070F06D12046FFF734FFE5
:100F68000028F3D000200AE001220B212046FFF7D9
:100F7800EBFC002211462046FFF7E6FC012010BDDD
:100F880070B582B004464378002B48D100228821EE
:100F98002046FFF7D9FC012280212046FFF7D4FC28
:100FA8000122FF212046FFF7CFFC002211462046F0
:100FB800FFF7CAFC91212046FFF701FD20740122AA
:100FC80000212046FFF7C0FC0022FF212046FFF742
:100FD800BBFC002280212046FFF7B6FC602120469A
:100FE800FFF7EDFC40F01202D2B260212046FFF775
:100FF800ABFCB5EE000A2046FFF73AFDFF220121BF
:101008002046FFF7A1FC0DF106020DF1070120466D
:10101800FFF70CFF054668B9284602B070BD892164
:10102800FFF7CDFC40F00102D2B289212046FFF73C
:101038008BFCABE706236A46B0212046FFF703FD89
:101048000122FF212046FFF77FFC00224F21204686
:10105800FFF77AFC2C224E212046FFF775FC002270
:10106800FF212046FFF770FCB422B6212046FFF787
:101078006BFC9DF806301BB10C2600231D4611E0C1
:101088000026FAE703F00701012202FA01F102AA99
:1010980002EBD30010F8082C22EA010200F8082C11
:1010A8000133DBB22F2B13D8B342EBD39DF80720C3
:1010B800AA42E7D002AA02EBD30212F8082C03F0E6
:1010C80007010A4112F0010FEAD00135EDB2E7E756
:1010D80006236A46B0212046FFF7A0FC0122FF2123
:1010E8002046FFF731FC002211462046FFF72CFC72
:1010F8000022FF212046FFF727FC00220921204675
:10110800FFF722FC002210212046FFF71DFC0022D9
:1011180011212046FFF718FC012224212046FFF761
:1011280013FCFF2225212046FFF70EFC0022752123
:101138002046FFF709FC0122FF212046FFF704FCA7
:101148002C224E212046FFF7FFFB00224821204693
:10115800FFF7FAFB202230212046FFF7F5FB00229B
:10116800FF212046FFF7F0FB092230212046FFF738
:10117800EBFB002254212046FFF7E6FB0422312135
:101188002046FFF7E1FB032232212046FFF7DCFB74
:10119800832240212046FFF7D7FB252246212046FF
:1011A800FFF7D2FB002260212046FFF7CDFB00228B
:1011B80027212046FFF7C8FB062250212046FFF7CB
:1011C800C3FB002251212046FFF7BEFB9622522185
:1011D8002046FFF7B9FB082256212046FFF7B4FB4B
:1011E800302257212046FFF7AFFB0022612120461D
:1011F800FFF7AAFB002262212046FFF7A5FB002289
:1012080064212046FFF7A0FB002265212046FFF756
:101218009BFBA02266212046FFF796FB0122FF21B7
:101228002046FFF791FB322222212046FFF78CFB54
:10123800142247212046FFF787FBFF224921204639
:10124800FFF782FB00224A212046FFF77DFB0022A0
:10125800FF212046FFF778FB0A227A212046FFF774
:1012680073FB00227B212046FFF76EFB21227821A9
:101278002046FFF769FB0122FF212046FFF764FBA8
:10128800342223212046FFF75FFB0022422120461B
:10129800FFF75AFBFF2244212046FFF755FB262281
:1012A80045212046FFF750FB052246212046FFF73F
:1012B8004BFB402211462046FFF746FB06220E2133
:1012C8002046FFF741FB1A2220212046FFF73CFB6E
:1012D800402243212046FFF737FB0022FF2120460A
:1012E800FFF732FB032234212046FFF72DFB44226F
:1012F80035212046FFF728FB0122FF212046FFF772
:1013080023FB042231212046FFF71EFB09224B2133
:101318002046FFF719FB05224C212046FFF714FB56
:1013280004224D212046FFF70FFB0022FF21204613
:10133800FFF70AFB002244212046FFF705FB202285
:1013480045212046FFF700FB082247212046FFF7EA
:10135800FBFA282248212046FFF7F6FA00226721E7
:101368002046FFF7F1FA042270212046FFF7ECFA35
:10137800012271212046FFF7E7FAFE22722120465A
:10138800FFF7E2FA002276212046FFF7DDFA002275
:1013980077212046FFF7D8FA0122FF212046FFF7E0
:1013A800D3FA01220D212046FFF7CEFA0022FF21B1
:1013B8002046FFF7C9FA012280212046FFF7C4FA28
:1013C800F82201212046FFF7BFFA0122FF2120461B
:1013D800FFF7BAFA01228E212046FFF7B5FA01225B
:1013E80000212046FFF7B0FA0022FF212046FFF730
:1013F800ABFA002280212046FFF7A6FA04220A2130
:101408002046FFF7A1FA84212046FFF7D8FA00F01A
:10141800EF0284212046FFF797FA01220B2120468C
:10142800FFF792FA2046FFF729FC6061E8220121C4
:101438002046FFF789FA61692046FFF76BFC012215
:1014480011462046FFF780FA40212046FFF774FD39
:10145800054600283FF4E0AD022201212046FFF7AF
:1014680073FA00212046FFF767FD054600283FF480
:10147800D3ADE82201212046FFF766FACCE5F0B5A6
:1014880089B004460F4616465208013AD5B206A955
:10149800FFF779FB6A4606A92046FFF7B9FB002F3C
:1014A80065D1A6F10C03062B00F21881DFE813F0D2
:1014B800070016014B0016015100160157001822AB
:1014C80057212046FFF740FA082256212046FFF709
:1014D8003BFA2A4650212046FFF736FA314604984F
:1014E800FFF702FC80B2FFF76EFB0246512120464F
:1014F800FFF739FA31460398FFF7F6FB83B2B3F5E5
:10150800807F32D8C2B2013AD2B246212046FFF7D4
:101518001BFA61692046FFF7FDFB01212046FFF712
:101528004EFA0546022201212046FFF70DFA002156
:101538002046FFF701FD2A4601212046FFF704FA5D
:10154800012009B0F0BD302257212046FFF7FCF9F1
:10155800BAE7402257212046FFF7F6F9B4E75022B0
:1015680057212046FFF7F0F9AEE7FF22CDE7012F1C
:1015780001D00020E5E7A6F10803062B00F2B080B1
:10158800DFE803F004AE40AE64AE880010224821C4
:101598002046FFF7D9F9082247212046FFF7D4F95A
:1015A800022232212046FFF7CFF90C2230212046B3
:1015B800FFF7CAF90122FF212046FFF7C5F93022BB
:1015C80011462046FFF7C0F90022FF212046FFF709
:1015D800BBF92A4670212046FFF7B6F9314605982F
:1015E800FFF782FB80B29DF81B301BB1BDF80630B7
:1015F800184480B2FFF7E7FA024671212046FFF748
:10160800B2F986E7282248212046FFF79DF90822EB
:1016180047212046FFF798F9032232212046FFF799
:1016280093F9092230212046FFF78EF90122FF2184
:101638002046FFF789F9202230212046FFF784F958
:101648000022FF212046FFF77FF9C2E73822482110
:101658002046FFF779F9082247212046FFF774F959
:10166800032232212046FFF76FF908223021204655
:10167800FFF76AF90122FF212046FFF765F92022CA
:1016880030212046FFF760F90022FF212046FFF7AE
:101698005BF99EE7482211462046FFF755F90822D4
:1016A80047212046FFF750F9032232212046FFF751
:1016B8004BF9072230212046FFF746F90122FF2186
:1016C8002046FFF741F9202230212046FFF73CF958
:1016D8000022FF212046FFF737F97AE7002030E79C
:1016E80000202EE710B582B064240094013101F087
:1016F80051FE02B010BD10B582B06424009401F010
:101708008FFD02B010BD00002DE9F04F8DB0002410
:101718000794089409940A940B940194604B1A6BEB
:1017280042F010021A631A6B02F010020192019A39
:1017380002941A6B42F004021A631A6B02F0040254
:101748000292029A03941A6B42F080021A631A6B8F
:1017580002F080020392039A04941A6B42F0010289
:101768001A631A6B02F001020492049A05941A6B28
:1017780042F002021A631A6B02F002020592059AFD
:1017880006941A6B42F008021A631B6B03F00803F5
:101798000693069B434F22460821384600F05CFC1E
:1017A800DFF80CA101221146504600F055FCDFF885
:1017B800049122464FF21001484600F04DFC3A4E83
:1017C80022468021304600F047FC4FF00808CDF84B
:1017D8001C800125089509940A9407A9384600F049
:1017E80057FB0795089509940A9407A9504600F0F5
:1017F8004FFBCDF81C804FF00208CDF820800994EB
:101808000A944FF0050BCDF82CB007A9504600F00C
:101818003FFB0795DFF8A0A0CDF820A0099407A901
:10182800224800F035FB042307930894099407A97C
:10183800304600F02DFB4FF480630793CDF82080ED
:1018480009940A94CDF82CB007A9304600F020FB83
:101858004FF210030793089509940A9407A948467C
:1018680000F016FB202307930894099407A948461B
:1018780000F00EFB80230793089509940A9407A9A2
:10188800304600F005FBCDF81C80CDF820A0099467
:1018980007A9384600F0FCFA0DB0BDE8F08F00BF8C
:1018A80000380240001002400004024000000240DC
:1018B80000080240000C02400000121008B5094858
:1018C800094B0360094B436000238360C3604FF4F6
:1018D8008042026143618361C361036201F0C6FB18
:1018E80008BD00BFE000002000540040A0860100B1
:1018F80008B50948094B03604FF4007242600023A1
:101908008360C3600261064A42618361C361036206
:1019180001F0A8FE08BD00BF90010020003C004077
:101928000077010008B50B480B4B03604FF4827336
:10193800436000238360C360036143614FF4007216
:101948008261C3610362436283620A23C36202F055
:101958008DFD08BD380100200030014070B598B0F9
:10196800302200210DEB020004F0DEFB0024079476
:10197800089409940A940B94039404940594069487
:101988000194204B1A6C42F080521A641B6C03F0CD
:1019980080530193019B02941B4B1A6842F48042C6
:1019A8001A601B6803F480430293029B01260C967D
:1019B8004FF480330D93022512954FF4800313934F
:1019C800082314934FF4A8731593169507231793B8
:1019D8000CA802F03FF90F230793089509944FF4D8
:1019E800A0530A934FF480530B93052107A802F0E4
:1019F80093FB0396C0230493059503A802F052FCB9
:101A080018B070BD003802400070004008B500F002
:101A180095F9FFF7A3FFFFF777FEFFF74FFFFFF7F3
:101A280067FFFFF77FFF04F0BBF91E4C00228021FF
:101A3800204600F011FB022000F0ACF901228021C1
:101A4800204600F009FB022000F0A4F9164C2046BD
:101A5800FFF796FA9FED150A2046FFF709F81222BC
:101A680000212046FFF70BFD0E2201212046FFF73B
:101A780006FD0F492046FFF74DF900212046FFF7E4
:101A88003FF804F0ADF900F07FF90A4B1880064CD6
:101A98002046FFF7AAF9084B18802046FFF76EF892
:101AA800EFE700BF0004024000000020CDCCCC3D91
:101AB800400D030034010020D801002070470000C9
:101AC80000B583B0002100910C4B5A6C42F480425F
:101AD8005A645A6C02F480420092009A01911A6C7E
:101AE80042F080521A641B6C03F080530193019BEF
:101AF800072000F063F903B05DF804FB00380240EA
:101B080030B589B000230393049305930693079394
:101B18000268144B9A4201D009B030BD00250195E6
:101B2800114C236B43F002032363236B03F002037E
:101B38000193019B4FF41073039312230493012321
:101B480005930423079303A9084800F0A1F9029517
:101B5800236C43F400132364236C03F400130293EF
:101B6800029BD9E7005400400038024000040240BC
:101B780070B588B0002303930493059306930793E5
:101B880002681E4B9A4201D008B070BD0024009430
:101B980003F5FE331A6C42F400421A641A6C02F41C
:101BA80000420092009A01941A6B42F001021A63F3
:101BB8001A6B02F001020192019A02941A6B42F028
:101BC80004021A631B6B03F004030293029B1023A5
:101BD8000393022604960625079503A9084800F0F2
:101BE80057F94FF4A4530393049605940694079564
:101BF80003A9044800F04CF9C6E700BF003C0040C8
:101C0800000002400008024000B589B00023039399
:101C180004930593069307930268144B9A4202D0E3
:101C280009B05DF804FB0021019103F584335A6C77
:101C380042F480525A645A6C02F480520192019A1A
:101C480002911A6B42F001021A631B6B03F0010345
:101C58000293029BE0230393022304930523079333
:101C680003A9034800F014F9DAE700BF0030014087
:101C7800000002407047FEE7FEE7FEE7FEE7704718
:101C88007047704708B500F073F808BD08B50248FA
:101C980000F0E5FE08BD00BFB805002008B5034602
:101CA8000B4A126842B10A4A106803446A469342D2
:101CB80006D8074A136008BD054A06491160F2E7CD
:101CC80004F0F8F90C2303604FF0FF30F3E700BF8E
:101CD800C800002080080020054BD3F8882042F473
:101CE8007002C3F888204FF000629A60704700BF06
:101CF80000ED00E010B504460E4B18784FF47A73E7
:101D0800B3FBF0F30C4A1068B0FBF3F000F0AAF84C
:101D180068B90F2C01D901200AE0002221464FF0B2
:101D2800FF3000F05DF8034B5C60002000E001200C
:101D380010BD00BF200000201C00002008B50B4B80
:101D48001A6842F400721A601A6842F480621A60D3
:101D58001A6842F480721A60032000F02FF80020FD
:101D6800FFF7C8FFFFF7ACFE002008BD003C0240AB
:101D7800034A1168034B1B780B441360704700BF7C
:101D8800DC01002020000020014B1868704700BFCC
:101D9800DC01002038B50446FFF7F6FF0546B4F12C
:101DA800FF3F02D0044B1B781C44FFF7EDFF401B9C
:101DB800A042FAD338BD00BF20000020074AD368EC
:101DC80023F4E0631B041B0C000200F4E0601843DA
:101DD80040F0BF6040F40030D060704700ED00E094
:101DE80030B4174BDB68C3F30223C3F10704042C98
:101DF80028BF04241D1D062D18D9033B4FF0FF35BD
:101E080005FA04F421EA0401994005FA03F322EAE9
:101E18000303194300280BDB0901C9B200F1604034
:101E280000F5614080F8001330BC70470023E5E7F7
:101E380000F00F000901C9B2024B1954F4E700BFC2
:101E480000ED00E014ED00E0002807DB00F01F02C1
:101E5800400901239340024A42F82030704700BFEE
:101E680000E100E00138B0F1807F0AD2064B5860EB
:101E7800064AF02182F823100020986007221A6091
:101E880070470120704700BF10E000E000ED00E05F
:101E980000230F2B00F2D780F0B583B039E007227A
:101EA80000E00022AA403A430234674D45F8242056
:101EB800664A1468F24302EA04054F6817F4803F43
:101EC80001D046EA0405614C2560646802EA04050D
:101ED8004F6817F4003F01D046EA04055B4C656083
:101EE800A46802EA04054F6817F4801F01D046EA87
:101EF8000405564CA560E46822404D6815F4001F9F
:101F080001D046EA0402514CE26001330F2B00F283
:101F1800988001229A400C6804EA0206B242F4D181
:101F28004C68651E012D03D9112C01D0122C12D139
:101F380085685F000324BC4025EA0405CC68BC40E2
:101F48002C438460456825EA02054C68C4F30012F6
:101F58009A402A434260C4685F000322BA40D243D1
:101F680014408D68BD402543C5604C68022C01D0E3
:101F7800122C13D1DD08083550F825E003F00704CA
:101F88004FEA840C0F2404FA0CF42EEA040E0C69B0
:101F980004FA0CF444EA0E0440F825400468224090
:101FA8004C6804F00304BC40224302604A6812F003
:101FB800805FAAD000220192254A546C44F48044E0
:101FC8005464526C02F480420192019A9C08A51C48
:101FD8001D4A52F8257003F0030295000F22AA400B
:101FE80027EA02071B4A90423FF45BAF02F5806282
:101FF80090421AD002F58062904218D002F58062B1
:10200800904216D002F58062904214D002F58062A8
:10201800904212D002F58062904210D002F58062A0
:1020280090423FF43CAF08223CE701223AE7022203
:1020380038E7032236E7042234E7052232E706228E
:1020480030E703B0F0BD704700380140003C014064
:10205800003802400000024012B90904816170474B
:1020680081617047F8B50668346A04F00F07C4F355
:102078004343C4F30A14022B2ED16CB307EB870237
:10208800D3000344596C39B305462246304602F062
:10209800EFFABA003A44D3002B445A6C22445A64EB
:1020A800DA6C2244DA6406EB4713D3F810150B4AAE
:1020B8000A408AB1D3F8002522F0804242F000425B
:1020C800C3F80025BB00D919CA002A4492F8503039
:1020D80083F0010382F85030F8BD00BF0000F81FFC
:1020E800F0B585B09DF828509DF82C60BDF830708B
:1020F80090F8B842012C41D0012480F8B8424FEA48
:10210800810C8C444FEACC0404444FF0000C84F852
:102118003DC084F83830A4F8407084F8391084F849
:102128003F6002F07F0C84F83AC012F0800F1BD198
:1021380001EB810C4FEACC0404444FF0000C84F806
:102148003BC0044601EB810C4FEACC00204480F8E8
:102158003C50029701960095206802F095FB0023F9
:1021680084F8B83205B0F0BD01EB810C4FEACC041D
:1021780004444FF0010C84F83BC0E2E70220F1E789
:1021880090F8B832012B0BD010B50446012380F823
:10219800B832006802F001FC002084F8B80210BDD3
:1021A80002207047002845D0F0B58BB00646046879
:1021B80090F8B932002B38D0032386F8B932E36B94
:1021C80013F4807F01D100233361306802F0F7F9FE
:1021D800344654F810CB6D460FCC0FC50FCC0FC545
:1021E80094E8030085E80300371D97E80E00604671
:1021F80002F09AF90121306802F0E7F9344654F800
:1022080010CB6D460FCC0FC50FCC0FC594E803005B
:1022180085E8030097E80E00604602F0A7FA01235C
:1022280086F8B93200200BB0F0BD80F8B83203F060
:10223800DFFDC1E701207047F8B59DF81870BDF8BB
:1022480020608D000D44EC00044484F83B2084F8A1
:102258003F308FB98D000D44EC000444032584F809
:1022680042509DF8245084F83D50032B00F296808C
:10227800DFE803F00A8D2F5E01EB8105EC000444D2
:10228800022584F84250F0E7012F40F08780002AA9
:1022980040F0848036B901EB8102D3000344012267
:1022A80083F8512001EB8102D300034493F85130A5
:1022B8003BB901EB8102D3000344002283F842209A
:1022C8006CE001EB8102D3000344022283F8422030
:1022D80064E0B2B901EB8102D300034493F85130B2
:1022E8003BB901EB8102D3000344002283F842206A
:1022F80054E001EB8102D3000344022283F8422018
:102308004CE001EB8102D300034493F850303BB911
:1023180001EB8102D3000344002283F842203DE010
:1023280001EB8102D3000344022283F8422035E006
:10233800B2B901EB8102D300034493F851303BB9A1
:1023480001EB8102D3000344002283F8422025E0F8
:1023580001EB8102D3000344022283F842201DE0EE
:1023680001EB8102D300034493F850303BB901EBF1
:102378008102D3000344002283F842200EE001EBDF
:102388008102D3000344022283F8422006E001EBD5
:102398008102D3000344002283F842208A005418A3
:1023A800E3000344079C5C649E64002483F85C405B
:1023B800DC6483F8391083F85D401144CB0003F1E5
:1023C8003801027C0144006802F062FBF8BD30B5B8
:1023D80083B005460468D4F840340193D4F84034F7
:1023E8000093009B23F02E030093019B13F0020F30
:1023F80007D0019B13F0010F25D1009B43F0020386
:102408000093019B13F0080F10D0009B43F00803C2
:102418000093019B13F0040F2DD0AB69022B15D04C
:10242800EB68012B22D0284603F041FD019B13F0F5
:10243800200F03D0009B43F020030093009BC4F8B7
:10244800403403B030BD03F025FDD6E7019B03F40B
:10245800C023B3F5802F04D00121286802F024F9A5
:10246800E1E70221286802F01FF9DCE74EF6602256
:10247800C4F80424D7E7284603F01FFDD6E7F8B5CB
:1024880006460D46076807EB411707F5A064A368E1
:1024980013F0040F40D00423A360E36843F0020361
:1024A800E360A36813F4007F40F08280A36813F010
:1024B800010F00F0B08033694BB1AA002A44D30061
:1024C80033449A6C2169C1F31201521ADA64AA00E2
:1024D8002A44D3003344012283F85D200021996502
:1024E800A26093F83F30002B6ED0022B6CD0032BE8
:1024F8007FD0012B72D1AA002A44D3003344012291
:1025080083F85C2093F85010514083F85010294606
:10251800304603F0CBFC61E0A36813F4807F06D15A
:10252800A36813F0200F14D02023A360B9E74FF459
:102538008073A36001EB8102D3000344072283F870
:102548005D20E36843F00203E360006802F025FAC7
:10255800A7E7A36813F0080F17D1A36813F4806FD7
:102568009FD0E36843F00203E360006802F015FAC5
:102578001023A36005EB8502D3003344082283F8B7
:102588005D204FF48063A3608BE7E36843F00203A8
:10259800E36001EB8102D3000344052283F85D2048
:1025A8001023A3600823A360006802F0F6F978E717
:1025B800E36843F00203E3602946306802F0EDF96E
:1025C8004FF40073A36013E0E36843F00203E36091
:1025D8002946306802F0E1F91023A360AB005919CD
:1025E800CA00324492F8503083F0010382F8503028
:1025F800F8BDD7F8003543F00053C7F8003505EBB0
:102608008502D3003344012283F85C2029463046F2
:1026180003F04CFCE2E7A36813F0020F6FD0E36805
:1026280023F00203E36005EB8502D300334493F8FB
:102638005D30012B14D0052B26D0062B2CD0082B6F
:102648002AD0032B4BD0072B11D1AA002A44D30040
:1026580033449A6D01329A65042283F85C2006E0BF
:1026680005EB8502D3003344012283F85C20022362
:10267800A36005EB8502D300334493F85C20294618
:10268800304603F013FCB3E705EB8502D30033446F
:10269800052283F85C20EAE7AA002A44D3003344E1
:1026A8009A6D01329A65032A11D9AA002A44D300E7
:1026B800334400229A65042283F85C20D7F8003559
:1026C80023F0804343F00043C7F80035CFE705EB1C
:1026D8008502D3003344022283F85C20EEE705EB41
:1026E8008502D3003344022283F85C20D7F80035F2
:1026F80023F0804343F00043C7F80035B7E7A368E9
:1027080013F0800F1AD1A36813F0100F3FF470AFC5
:1027180005EB8502D300334493F83F30032B25D0D3
:102728000BB1022B07D105EB8502D30033440022FD
:102738009A6533694BB31023A36059E7E36843F004
:102748000203E360AB005919CA003244916D0131AC
:1027580091652B44DA003244062382F85D3029461D
:10276800306802F01AF98023A36041E705EB85027F
:10277800D300334400229A65E36843F00203E36020
:102788002946306802F009F9D5E705EB8502D30040
:102798003344032283F85D20E36843F00203E360D7
:1027A8002946306802F0F9F8C5E7F8B5036803EB85
:1027B800411303F5A064A26812F0040F24D10E4659
:1027C8000546A26812F0200F25D02023A36001EB54
:1027D8008102D3001A46034493F83D30012B19D1E6
:1027E8008B000244002182F83D103344DA00024491
:1027F800022382F85C30E36843F00203E360314669
:10280800006802F0CAF805E00423A360E36843F017
:102818000203E360F8BDA26812F0400F34D1A26849
:1028280012F4007F4AD1A26812F0010F51D1A268B8
:1028380012F0080F62D1A26812F0100F6FD08A0050
:102848000A44D300034400229A65032283F85D20DA
:1028580093F83D306BB901EB8102D300034493F840
:102868003C3033B901EB8102D3000344012283F8E1
:102878003D20E36843F00203E3603146286802F034
:102888008CF81023A360C5E78B005918CA000244CE
:10289800042182F85D10012182F83D103344DA00EA
:1028A800024400239365E36843F00203E360314682
:1028B800006802F072F84023A360ABE7E36843F0D6
:1028C8000203E360006802F068F84FF40073A36045
:1028D800A0E78F007A18D300034400229A65E368C2
:1028E80043F00203E360006802F057F80123A36095
:1028F800B919C800284480F85D308BE70823A36025
:10290800E36843F00203E360006802F046F806EB70
:102918008601C8002844052380F85D307AE7A2685C
:1029280012F0800F39D1A26812F4806F46D1A268E4
:1029380012F0020F3FF46EAFE26822F00202E2608A
:1029480001EB8101CA001146024492F85D20012A78
:1029580048D0032A5AD0042A6CD0052A72D0062AF5
:1029680001D0082A59D1B1003144CA002A44916DD6
:102978000131916503296BD9282202FB06520021F7
:102988009165042182F85C10D3F8002522F080427A
:1029980042F00042C3F800253FE0E36843F0020339
:1029A800E360006801F0F9FF06EB8601CB002B44D9
:1029B800062283F85D208023A3602BE7E36843F0B9
:1029C8000203E360006801F0E8FF1023A3604FF4FE
:1029D8008063A36006EB8601CB002B44082283F8B2
:1029E8005D2017E70B460344012283F85C2093F827
:1029F8003F30023BDBB293420FD80B46034493F8B7
:102A0800512082F0010283F8512006E006EB86028D
:102A1800D3000344022283F85C200223A36006EB60
:102A28008602D3002B4493F85C203146284603F0F5
:102A38003DFAEFE606EB8602D3000344022283F850
:102A48005C20EAE7282303FB060383F85C20E4E71D
:102A5800282202FB0652022182F85C1094E7F8B59E
:102A680004460568284601F01BFE012800D0F8BD81
:102A7800206801F011FE0028F9D0206801F00CFE52
:102A880010F4001F03D023684FF400125A61206825
:102A980001F002FE10F4801F03D023684FF4801267
:102AA8005A61206801F0F8FD10F0806F03D02368A8
:102AB8004FF080625A61206801F0EEFD10F0020FBD
:102AC80002D0236802225A61206801F0E5FD10F067
:102AD800005F08D023684FF000525A61D5F840349F
:102AE80013F0010F25D0206801F0D6FD10F0807F8B
:102AF80027D1206801F0D0FD10F0080F25D12068FB
:102B080001F0CAFD10F0007F26D1206801F0C4FD55
:102B180010F0100FABD02268936923F01003936173
:102B28002046FFF79FFA2268936943F010039361E8
:102B38009DE7204603F0B4F90121206801F0B4FDB7
:102B4800D1E72046FFF743FCD3E7204603F09CF982
:102B5800236808225A61D2E7206801F019FF074666
:102B6800002604E0F1B22046FFF71FFE0136A368F5
:102B7800B34212D906F00F0327FA03F313F0010F3B
:102B8800F4D005EB4613D3F8003513F4004FE9D021
:102B9800F1B22046FFF773FCE8E723684FF00072B4
:102BA8005A61B2E738B590F8B832012B0ED0044616
:102BB800012580F8B852006801F0FBFC294620681E
:102BC80001F0B1FD002084F8B80238BD0220FCE70E
:102BD80090F8B832012B0BD010B50446012380F8C9
:102BE800B832006802F000F8002084F8B80210BD7E
:102BF8000220704708B5006801F076FD08BD01EBBA
:102C08008101CB00184490F85C00704701EB81010A
:102C1800CB001844C06C704708B5006801F02FFE5F
:102C280008BD08B5006801F01FFE08BD03685A69B1
:102C380012F4806F11D06FF480625A61002303632D
:102C4800202280F83D2080F83E30026C42F00402D9
:102C5800026480F83C300120704700207047F8B5C6
:102C680006460C4617461D4622E0FFF78DF8069BE0
:102C7800C01AA84200D8DDB900233363202286F8A1
:102C88003D2086F83E30326C42F02002326486F8ED
:102C98003C3001201AE033685B6924EA03039BB2E5
:102CA800B3FA83F35B099F420FD1B5F1FF3FDCD143
:102CB800C4F30743012BEED033689B6924EA03036E
:102CC8009BB2B3FA83F35B09EDE70020F8BDF8B5D2
:102CD80004460D4616461F463CE01A6842F4007248
:102CE8001A6023686FF480625A61002323632022EC
:102CF80084F83D2084F83E30226C42F004022264BD
:102D080084F83C30012033E0FFF73EF8C01BB042A6
:102D180000D8FEB900232363202284F83D2084F8DC
:102D28003E30226C42F02002226484F83C300120BC
:102D38001EE023685B6925EA03039BB2003318BFD2
:102D48000123A3B123685A6912F4806FC5D1B6F183
:102D5800FF3FD9D1C5F30743012BEAD023689B690C
:102D680025EA03039BB2003318BF0123E9E70020DB
:102D7800F8BD0000F0B583B004460F4615461E4660
:102D8800C36A082B0DD0012B0BD013F5803F08D058
:102D9800036B122B0AD10268136843F48073136023
:102DA80004E02268136843F48073136000962B468E
:102DB80000224FF001112046FFF751FF58B1236858
:102DC8001B6813F4807F2BD04FF400732364032314
:102DD800184603B0F0BD2369B3F5804F0ED12368C0
:102DE80007F0FE071F6133462A460F492046FFF7C2
:102DF8006EFF03460028EBD00123E9E7FB112268A8
:102E080003F0060343F0F003136133462A460749EB
:102E18002046FFF75CFF28B92368FFB21F61E2E78D
:102E28000323D5E70123D3E70200010008000100CE
:102E38002DE9F04184B004460D4616461F46C26A85
:102E480001680B6843F480630B60082A0DD0012ADF
:102E58000BD012F5803F08D0036B112B0AD1026802
:102E6800136843F48073136004E02268136843F422
:102E7800807313600097334600224FF001112046FB
:102E8800FFF7EDFE60B123681B6813F4807F5BD009
:102E98004FF4007323640323184604B0BDE8F0819F
:102EA8002369B3F5804F0FD1236845F00105EDB2D2
:102EB8001D613B46324626492046FFF708FF034678
:102EC8000028E9D00123E7E74FEAE51808F00608EB
:102ED800236848F0F0021A613B4632461D492046F5
:102EE800FFF7F5FE08B10123D6E72368EDB21D61AF
:102EF8003B46324616492046FFF7E9FE08B1012352
:102F0800CAE70022039223685969039199690391DA
:102F18000399196841F480711960009733464FF09E
:102F280001112046FFF79BFE48B123681B6813F484
:102F3800807F0BD04FF4007323640323ACE722682F
:102F480048F0F1031361B4E70323A5E70323A3E7DC
:102F5800020001000800010070B504460D4616463F
:102F680023685B6913F0800F1CD12046FFF75EFED3
:102F7800D0B9B5F1FF3FF3D0FEF706FF801BA8429A
:102F880001D8002DECD100232363202284F83D20B2
:102F980084F83E30226C42F02002226484F83C30EF
:102FA800012000E0002070BD0120FCE770B5044658
:102FB8000D46164623685B6913F0040F1CD12046A2
:102FC800FFF734FED0B9B5F1FF3FF3D0FEF7DCFED2
:102FD800801BA84201D8002DECD1002323632022B6
:102FE80084F83D2084F83E30226C42F020022264AE
:102FF80084F83C30012000E0002070BD0120FCE78F
:1030080070B505460C4616462B685A6912F0400FF3
:1030180029D15A6912F0100F15D1FEF7B5FE801BA1
:10302800A04201D8002CEFD100232B63202285F881
:103038003D2085F83E302A6C42F020022A6485F84B
:103048003C30012070BD6FF010025A6100232B63E1
:10305800202285F83D2085F83E302A6C2A6485F8C0
:103068003C300120EEE70020ECE70000002800F0EB
:10307800C880F8B5044690F83D30002B75D024235D
:1030880084F83D302268136823F001031360226836
:10309800136843F4004313602268136823F4004361
:1030A800136001F0EFF86268584B9A4262D8584BA7
:1030B80098428CBF00230123002B40F0A480554B7D
:1030C800A3FB00239B0C21684A6822F03F021A43A5
:1030D8004A6025682A6A22F03F0266684B498E4298
:1030E8004ED8013313432B622568E96921F44F4117
:1030F80021F0FF016368454A93424BD801385B00D1
:10310800B0FBF3F30133C3F30B03042B38BF0423E1
:103118000B43EB6121680B6823F0C003E269206A66
:10312800024313430B6021688B6823F4034323F0A5
:10313800FF032269E068024313438B602168CB6870
:1031480023F0FF036269A06902431343CB6022683E
:10315800136843F00103136000202064202384F8DF
:103168003D30206384F83E00F8BD80F83C30FEF71F
:10317800C7FC84E7284B98428CBF002301239BE7B8
:103188004FF4967101FB03F32449A1FB03139B0938
:103198000133A7E7A268BAB9461E03EB4307B6FB9B
:1031A800F7F60136C6F30B06B6FA86F6760936BB8D
:1031B800C2B9013803EB4303B0FBF3F30133C3F3A4
:1031C8000B0242F40043A3E7461E03EB830707EB19
:1031D8008707B6FBF7F60136C6F30B06B6FA86F68E
:1031E8007609E4E7013803EB830303EB8303B0FBC1
:1031F800F3F20132C2F30B0242F4404388E70123A1
:1032080086E7012070470120AEE700BFA0860100D5
:103218007F841E0083DE1B43FF083D00D34D6210F0
:103228002DE9F04184B004460E4690461F46FEF74D
:10323800ABFD94F83D30DBB2202B04D0022630469B
:1032480004B0BDE8F08105460090192301224F49DA
:103258002046FFF704FD002840F0918094F83C30A8
:10326800012B00F08E80012384F83C3023681A6813
:1032780012F0010F03D11A6842F001021A602268A5
:10328800136823F400631360212384F83D3010236E
:1032980084F83E3000232364C4F824806785638D56
:1032A80023853B4BE3622B460A9A31462046FFF7BB
:1032B80061FD0646002866D10023039323685A69F6
:1032C80003929B690393039B12E0236C042B01D0A8
:1032D8000126B4E72268136843F4007313600126DB
:1032E800ADE72A460A992046FFF760FE00282CD150
:1032F800238D002B35D02A460A992046FFF72CFE4D
:103308000028E2D1626A236812781A61616A4B1C4C
:103318006362638D013B9BB26385238D013B9BB246
:1033280023852268506910F0040FDAD0002BD8D01A
:103338004B781361636A01336362638D013B9BB20F
:103348006385238D013B2385CBE7236C042B01D0B8
:10335800012674E72268136843F40073136001269A
:103368006DE72268136843F400731360202384F820
:103378003D30002384F83E3084F83C305FE7022675
:103388005DE702265BE7012659E700BF020010004F
:103398000000FFFF2DE9F04186B004460E46904636
:1033A8001F46FEF7F1FC94F83D30DBB2202B04D029
:1033B8000226304606B0BDE8F08105460090192384
:1033C80001229E492046FFF74AFC002840F034813C
:1033D80094F83C30012B00F03781012384F83C300D
:1033E80023681A6812F0010F03D11A6842F001022B
:1033F8001A602268136823F400631360222384F898
:103408003D30102384F83E3000232364C4F8248020
:103418006785638D23858A4BE3622B460C9A314678
:103428002046FFF705FD0646002840F00F81238D52
:103438005BB9029323685A6902929A690292029AC6
:103448001A6842F400721A6077E0012B0FD0022B41
:103458001FD02268136843F4806313600023059328
:1034680023685A6905929B690593059B65E0226864
:10347800136823F4806313600023039323685A6955
:1034880003929A690392039A1A6842F400721A60C6
:1034980053E02268136823F480631360226813687A
:1034A80043F4006313600023049323685A69049269
:1034B8009B690493049B40E02A460C992046FFF739
:1034C8009FFD002840F0C48023681A69636A1A7057
:1034D800636A01336362238D013B2385638D013B5E
:1034E8009BB2638529E000950C9B00225549204634
:1034F800FFF7B5FB002840F0AD802268136843F45D
:103508000073136023681A69636A1A70626A531C2D
:103518006362238D013B2385638D013B9BB26385E9
:1035280023681B695370636A01336362238D013B0F
:103538002385638D013B9BB26385238D002B72D05D
:10354800032B49D8012BB7D0022BCCD000950C9B6C
:1035580000223C492046FFF782FB00287CD12268E4
:10356800136823F48063136023681A69636A1A7006
:10357800636A01336362238D013B2385638D013BBD
:103588009BB2638500950C9B00222E492046FFF7CD
:1035980066FB002862D12268136843F40073136045
:1035A80023681A69636A1A70626A531C6362238DFE
:1035B800013B2385638D013B9BB2638523681B69AF
:1035C8005370636A01336362238D013B2385638DE6
:1035D800013B9BB26385B0E72A460C992046FFF76A
:1035E8000FFD00283CD123681A69636A1A70626A61
:1035F800531C6362238D013B2385638D013B9BB282
:1036080063852368596911F0040F96D01B695370BC
:10361800636A01336362238D013B2385638D013B1C
:103628009BB2638589E7202384F83D30002384F822
:103638003E3084F83C30BCE60226BAE602001000B0
:103648000000FFFF040001000226B2E60126B0E6F2
:103658000126AEE60126ACE60126AAE60126A8E682
:103668000126A6E6002800F0BF8070B5044690F851
:103678004130002B51D0022284F841202168CB69C7
:1036880023F47B6323F00F03CB6123681A62636919
:10369800934263D0E368002B46D11025A368202B02
:1036A80000D86D00012000F0A7FE2369B3F5007F64
:1036B8003CD0B0FBF5F000EB800043006269B3FB3F
:1036C800F2F30533494AA2FB0323DB0803F00102A6
:1036D8009B1A5B081202991EFD2941D821690A43E9
:1036E800216813430B622168CB6923F47B6323F0C1
:1036F8000F036268A0680243E0680243A0690243BE
:10370800134343F40063CB61236A012B2ED00020BE
:103718006064012384F8413070BD80F84030344B38
:103728004363FEF725FAA6E72025B7E7E36853B118
:10373800AD00B0FBF5F000EB800043006269B3FB1D
:10374800F2F30533BEE7ED00B0FBF5F000EB8000C7
:1037580043006269B3FBF2F30533B3E70022BAE72B
:10376800636C43F0100363640120D5E7214B636366
:103778002268214B9A421FD04FF04022D36923F48C
:103788007B6323F00F03D36122681B4B9A4215D049
:103798004FF0402302221A622268174B9A4210D037
:1037A8004FF04021CA6992B26368B3F5007F0AD02E
:1037B800C3B94FF4807608E0104ADFE7A3F58063C9
:1037C800E8E70E49EEE74FF48076A068E568238BBA
:1037D8002B439BB203439BB23343134343F400632D
:1037E800CB6194E70026F0E701207047CDCCCCCC24
:1037F8007B380008853A0008003800400034004053
:10380800704708B5426A03681288DA60436A02336F
:103818004362438D013B9BB24385438D9BB203B109
:1038280008BD0268536823F0A0035360012380F8A1
:103838004130FFF7E5FFF3E7704708B50368DA683A
:10384800C36A1A80C36A0233C362438E013B9BB2C8
:103858004386438E9BB203B108BD0268536823F0C8
:1038680060035360012380F84130FFF7E5FFF3E779
:10387800704710B584B0044602689368039390F8C3
:103888004130DBB2042B06D094F84130DBB2032B75
:103898002CD004B010BD039B13F0010F03D0536864
:1038A80013F0400F1FD1039B13F0400FECD0236897
:1038B8005A6812F0200FE7D05A6822F060025A6066
:1038C800002301932368DA6801929B680193019BA6
:1038D800012384F84130636C43F00203636420469B
:1038E800FFF7C6FFD0E7FFF7A8FFDCE7039B13F05D
:1038F800020F04D023685B6813F0800F1DD1039B6F
:1039080013F0080FC5D023685A6812F0200FC0D0F2
:103918005A6822F0A0025A600023029323689B6829
:103928000293029B012384F84130636C43F0040343
:1039380063642046FFF79CFFABE72046FFF761FF73
:10394800DDE7704708B5436A9A1C426202681B8823
:10395800D360438D013B9BB24385438D9BB23BB9FA
:103968000268536823F0A0035360438E9BB203B1EF
:1039780008BD012380F84130FFF7E3FFF8E70000B6
:1039880008B50268144B9A421BD04FF04023DA68FE
:10399800C36A991CC1621A80438E013B9BB243865D
:1039A800438E9BB263B902680B4B9A420CD04FF01E
:1039B8004022536823F060035360438D9BB22BB1C0
:1039C80008BDA3F58063E2E7044AF2E7012380F823
:1039D8004130FFF7B6FFF3E70038004000340040FD
:1039E80008B5436A9A1C42621A880168124B9942C8
:1039F80017D04FF04023DA60438D013B9BB24385DB
:103A0800438D9BB263B902680B4B9A420CD04FF0BE
:103A18004022536823F0A0035360438E9BB22BB11E
:103A280008BDA3F58063E6E7044AF2E7012380F8BE
:103A38004130FFF786FFF3E70038004000340040CC
:103A480008B50368DA68C36A991CC1621A80438E94
:103A5800013B9BB24386438E9BB23BB902685368D5
:103A680023F060035360438D9BB203B108BD01236B
:103A780080F84130FFF765FFF8E7000010B586B021
:103A8800044603689A680592704A93426FD04FF0D3
:103A98004022916804915B680393536802936368BA
:103AA800B3F5007F01D0002B70D1059B13F0020FF6
:103AB80003D0039B13F0800F5CD1049B13F0010F1C
:103AC80003D0029B13F0400F58D1049B13F0400F12
:103AD80024D0029B13F0200F20D022685B4B9A421F
:103AE80050D04FF04022536823F06003536022689F
:103AF800536823F0A0035360002300932368DA6817
:103B080000929B680093009B012384F84130636C0A
:103B180043F0020363642046FFF7AAFE059B13F0F7
:103B2800080F22D0039B13F0200F1ED02268536881
:103B380023F0A00353602268444B9A4224D04FF0EC
:103B48004022536823F060035360002301932368E5
:103B58009B680193019B012384F84130636C43F017
:103B6800040363642046FFF783FE06B010BDA2F588
:103B780080628EE72046FFF7E5FE9EE72046FFF7C6
:103B8800FFFEA2E7324AAEE7314ADAE7049B13F0B8
:103B9800020F03D0029B13F0800F4AD1059B13F04C
:103BA800010F03D0039B13F0400F46D1059B13F080
:103BB800400F1CD0039B13F0200F18D022685368C5
:103BC80023F0600353602268204B9A4239D04FF0AB
:103BD8004022536823F0A0035360012384F8413046
:103BE800636C43F0020363642046FFF741FE049BC5
:103BF80013F0080FB9D0029B13F0200FB5D022683C
:103C0800124B9A421FD04FF04022536823F0A00372
:103C180053602268536823F060035360012384F8DB
:103C28004130636C43F0040363642046FFF720FED1
:103C38009BE72046FFF7D4FEB0E72046FFF700FFDA
:103C4800B4E7034AC5E7024ADFE700BF003800408F
:103C580000340040002800F0E48170B582B00446CA
:103C6800036813F0010F3BD0A74B9B6803F00C03CC
:103C7800042B2CD0A44B9B6803F00C03082B21D0F9
:103C88006368B3F5803F4FD0B3F5A02F52D09E4B59
:103C98001A6822F480321A601A6822F480221A60A4
:103CA8006368002B50D0FEF76FF80546964B1B68EB
:103CB80013F4003F14D1FEF767F8401B6428F5D9C8
:103CC8000320B3E1904B5B6813F4800FD8D08E4B80
:103CD8001B6813F4003F03D06368002B00F0A38136
:103CE800236813F0020F55D0874B9B6813F00C0F15
:103CF8003ED0854B9B6803F00C03082B33D0E36858
:103D0800002B68D0814B01221A60FEF73DF805466A
:103D18007D4B1B6813F0020F54D1FEF735F8401B9A
:103D28000228F5D9032081E1774A136843F48033E8
:103D38001360B5E7744B1A6842F480221A601A6857
:103D480042F480321A60ABE7FEF71EF805466E4B68
:103D58001B6813F4003FC3D0FEF716F8401B642815
:103D6800F5D9032062E1684B5B6813F4800FC6D174
:103D7800654B1B6813F0020F04D0E368012B01D0D8
:103D8800012053E1604A136823F0F803216943EAEC
:103D9800C1031360236813F0080F40D0636963B34D
:103DA8005B4B01221A60FDF7EFFF0546564B5B6F30
:103DB80013F0020F33D1FDF7E7FF401B0228F5D9B6
:103DC800032033E1504A136823F0F803216943EADA
:103DD800C1031360DEE74D4B00221A60FDF7D4FFE4
:103DE8000546494B1B6813F0020FD3D0FDF7CCFFF3
:103DF800401B0228F5D9032018E1454B00221A6020
:103E0800FDF7C2FF0546404B5B6F13F0020F06D06B
:103E1800FDF7BAFF401B0228F5D9032006E1236805
:103E280013F0040F79D0384B1B6C13F0805F33D13B
:103E380000230193344B1A6C42F080521A641B6CB5
:103E480003F080530193019B0125324B1B6813F447
:103E5800807F23D0A368012B34D0052B38D02A4B80
:103E68001A6F22F001021A671A6F22F004021A6709
:103E7800A368002B36D0FDF787FF0646224B1B6F41
:103E880013F0020F48D1FDF77FFF801B41F2883302
:103E98009842F3D90320C9E00025D6E71D4A1368E4
:103EA80043F480731360FDF76FFF0646194B1B68D8
:103EB80013F4807FCED1FDF767FF801B0228F5D968
:103EC8000320B3E0104A136F43F001031367CFE7F1
:103ED8000D4B1A6F42F004021A671A6F42F0010282
:103EE8001A67C5E7FDF750FF0646074B1B6F13F02F
:103EF800020F11D0FDF748FF801B41F2883398422A
:103F0800F3D9032092E000BF003802400000474286
:103F1800800E474200700040EDB9A369002B00F005
:103F28008480454A926802F00C02082A51D0022B7C
:103F380017D0424B00221A60FDF726FF04463E4B7D
:103F48001B6813F0007F42D0FDF71EFF001B0228FC
:103F5800F5D903206AE0384A136C23F080531364C0
:103F6800DBE7364B00221A60FDF70EFF0546324BA1
:103F78001B6813F0007F06D0FDF706FF401B0228E0
:103F8800F5D9032052E0E369226A1343626A43EADF
:103F98008213A26A5208013A43EA0243E26A43EAF8
:103FA8000263254A5360254B01221A60FDF7ECFE97
:103FB8000446214B1B6813F0007F06D1FDF7E4FE91
:103FC800001B0228F5D9032030E000202EE0002055
:103FD8002CE0012B2CD0184B5B6803F48001E269BC
:103FE800914201D0012021E003F03F02216A8A4278
:103FF80001D001201AE0616A47F6C0721A408A426D
:1040080001D0012012E003F44032A16A8A4201D0B3
:1040180001200BE003F07063E26A93420AD00120AA
:1040280004E001207047012000E0002002B070BDCC
:104038000120FBE70020F9E7003802406000474212
:10404800324B9B6803F00C03042B5CD0082B01D087
:104058002F4870472DE9F04B2C4B5A6802F03F026D
:104068005B6813F4800F2BD0284B5B68C3F388136D
:104078001E4600275C010025E41A65EB0705A90127
:1040880041EA9461A001001B61EB0501CB0043EA02
:104098005073C400A01943EB07014B0243EAD05305
:1040A8004402204619460023FCF7CEFA174B5B68FA
:1040B800C3F3014301335B00B0FBF3F0BDE8F08BC1
:1040C800124B5B68C3F388131E4600275C0100256A
:1040D800E41A65EB0705A90141EA9461A001001BF8
:1040E80061EB0501CB0043EA5073C400A01943EB10
:1040F80007018B0243EA90538402204619460023A5
:10410800FCF7A2FAD2E70348704700BF0038024024
:104118000024F40000127A00002800F09E8070B598
:104128000446504B1B6803F00F038B4209D2CBB2F5
:104138004C4A1370136803F00F038B4201D001201F
:1041480070BD236813F0020F17D013F0040F04D0CA
:10415800454A936843F4E0539360236813F0080FCB
:1041680004D0414A936843F4604393603E4A93689D
:1041780023F0F003A068034393600D46236813F00F
:10418800010F32D06368012B21D09A1E012A25D94C
:10419800354A126812F0020F61D033498A6822F05A
:1041A800030213438B60FDF7EFFD06462E4B9B6819
:1041B80003F00C036268B3EB820F16D0FDF7E4FD41
:1041C800801B41F288339842F0D90320B8E7264A89
:1041D800126812F4003FE0D10120B1E7224A1268C8
:1041E80012F0007FD9D10120AAE71E4B1B6803F00B
:1041F8000F03AB4209D9EAB21A4B1A701B6803F0D5
:104208000F03AB4201D001209AE7236813F0040F93
:1042180006D0154A936823F4E053E1680B43936092
:10422800236813F0080F07D00F4A936823F46043FC
:10423800216943EAC1039360FFF702FF0A4B9B68B9
:10424800C3F30313094AD35CD840094B1860094BE0
:104258001868FDF74FFD002072E701207047012024
:104268006EE700BF003C024000380240CC62000804
:104278001C00002024000020014B1868704700BF74
:104288001C00002008B5FFF7F7FF044B9B68C3F339
:104298008223034AD35CD84008BD00BF00380240DF
:1042A800DC62000830B583B00446036813F0050FDC
:1042B80006D1236813F0020F2ED1002003B030BDC1
:1042C800494B00221A60FDF75FFD0546474B1B6806
:1042D80013F0006F06D0FDF757FD401B0228F5D9F3
:1042E8000320EBE76268A3681B0743EA82133F4A8F
:1042F800C2F884303C4B01221A60FDF745FD0546A3
:104308003A4B1B6813F0006FD3D1FDF73DFD401BFE
:104318000228F5D90320D1E700230193334B1A6C07
:1043280042F080521A641B6C03F080530193019B86
:104338002F4A136843F480731360FDF725FD054683
:104348002B4B1B6813F4807F06D1FDF71DFD401B26
:104358000228F5D90320B1E7244B1B6F13F44073EF
:1043680012D0E26802F440729A420DD01F4B1A6FC5
:1043780022F440721F4901200860002008601A6773
:104388001B6F13F0010F13D1E36803F44072B2F509
:10439800407F1ED0154A936823F4F813936013499D
:1043A8000B6FE268C2F30B0213430B67002085E72B
:1043B800FDF7EAFC05460D4B1B6F13F0020FE3D126
:1043C800FDF7E2FC401B41F288339842F3D9032001
:1043D80074E706498A6822F4F81223F0704323F43C
:1043E800407313438B60DAE76800474200380240A5
:1043F80000700040400E474201282AD1174B9B68A5
:1044080013F4000303D0012B25D115487047134B33
:104418005B6813F4800F14D0104B5B6803F03F0304
:104428001048B0FBF3F00D4AD2F88430C3F3881378
:1044380000FB03F0D2F88430C3F30273B0FBF3F04F
:104448007047064B5B6803F03F030748B0FBF3F087
:10445800E9E7002070470020704700BF003802409D
:104468000080BB0000127A000024F40000283BD032
:1044780010B504460023836290F85130002B2ED0EB
:10448800022384F851302268136823F04003136034
:104498006368A2681343E26813432269134362699D
:1044A8001343A26902F400721343E2691343226AB8
:1044B8001343A16A22680B431360638B03F0040360
:1044C800616A22680B4353602268D36923F400634E
:1044D800D36100206065012384F8513010BD80F855
:1044E8005030FDF791FBCBE70120704700230133E3
:1044F8000C4A934211D80269002AF8DA036943F09A
:104508000103036100230133064A934207D8026975
:1045180012F0010FF7D100207047032070470320E5
:10452800704700BF400D030084B010B5044603A8CF
:1045380080E80E00089B012B1FD1A36B23F4803366
:10454800A363E36823F4840323F04003E360E36890
:1045580023F44013E3600F9B012B09D02046FFF79B
:10456800C5FF069B012B1BD0BDE8104004B0704767
:10457800E36843F48013E360F0E7E36843F0400343
:10458800E3602046FFF7B2FF0C9B23B9A36B43F40B
:104598008033A363E5E7A36B23F48033A363E0E7E9
:1045A800A36843F00603A360A36843F02003A36055
:1045B800DAE7836843F0010383600020704783686B
:1045C80023F0010383600020704708B5C36823F017
:1045D800C043C360012909D069B9C36843F0804367
:1045E800C3603220FDF7D6FB002008BDC36843F046
:1045F8000053C360F5E70120F7E70000890141F0A7
:104608002001016100230133054A934205D802695C
:1046180012F0200FF7D1002070470320704700BF29
:10462800400D03001023036100230133054A934220
:1046380005D8026912F0100FF7D100207047032047
:10464800704700BF400D030070B49DF80C4064B97A
:1046580003339D0807E000EB023303F5805351F85C
:10466800046B1E600134AC42F5D3002070BC704767
:1046780003329208002393420CD210B400F5805400
:10468800246841F8044B01339342F7D308465DF898
:10469800044B70470846704742698069104070476C
:1046A800406900F00100704710B400F58064D0F84C
:1046B800003423F00303C0F80034D0F8003401F0CC
:1046C80003021343C0F80034012905D0022907D09A
:1046D80000205DF8044B70474BF680336360F7E7C2
:1046E80041F270736360F3E730B583B00446002588
:1046F8000195D0F840340193019B23F02E030193D8
:10470800019B43F48073C0F840346420FDF742FBFA
:10471800019B23F48073C4F840340A20FDF73AFB68
:10472800284603B030BD82B000230193D0F840344E
:104738000193019B23F02E030193019B13F4805FE7
:1047480001D101290CD0019B13F4805F05D021B958
:10475800019B23F48053C0F84034002002B0704716
:10476800019B43F48053C0F84034ECE784B038B57B
:10477800044605A880E80E0025460023C4F8003E3C
:10478800A36B43F40013A363A36B23F40023A36375
:10479800A36B23F48023A363E36B13F4807F10D00F
:1047A800079B012B06D0D4F8003423F00403C4F887
:1047B80000340CE0D4F8003443F00403C4F80034A7
:1047C80005E0D4F8003423F00403C4F800341021C1
:1047D8002046FFF713FF2046FFF724FF002209E0D9
:1047E80005EB42134FF0FF31C3F808150021C3F859
:1047F8000C150132069B9342F2D801212046FFF79F
:1048080092FFC820FDF7C6FA0023A3614FF0FF33DB
:104818006361E36B13F4807F17D04FF40073636216
:1048280003F18073A3620D4BC4F80031089B1BB9D8
:10483800A36943F01003A361A269094B1343A36161
:104848000020BDE8384004B070478023636203F558
:10485800C003A362034BC4F80031E7E70003E0009C
:10486800080020A3E000400082B000230193D0F8A4
:10487800403401930198C0F3414002B0704700F5FD
:104888008060806880B27047F0B506469DF8184091
:1048980000EB411505F5A0604FF0FF378760032C4A
:1048A80065D8DFE804F00256021840F29D47C76059
:1048B80012F0800F09D1F76B17F4807F59D0C768C1
:1048C80047F06007C76000200CE0C76847F48077AE
:1048D800C760002006E040F29D67C76012F0800FB5
:1048E80031D1002006F5806ED6F8187401F00F015A
:1048F8004FF0010C0CFA01F13943C6F81814B169EC
:1049080041F00071B16112F0800F34D100269DF89A
:104918001410022932D000219B0503F0FE53D20265
:1049280002F4F0421343A20402F440221343BDF8F8
:104938001C20C2F30A02134333430B43C5F8003566
:10494800032C1ED0F0BDC76847F48077C7600020ED
:10495800C8E740F22527C76012F0800F01D1002078
:10496800C0E7C76847F4C077C7600020BAE70120EE
:10497800B8E70020B6E74FF40046C8E74FF4003127
:10498800CAE7D5F8003543F00053C5F80035D9E734
:1049980000F58060406980B2704710B400EB4111A7
:1049A80001F5A064D1F80035C3F381433BB3022B72
:1049B80025D0D1F8003543F08043C1F80035D0F850
:1049C800103413F47F0F49D1D1F8003523F0004398
:1049D800C1F80035D1F8003543F00043C1F800357F
:1049E800D1F8003523F40043C1F800350023013322
:1049F800B3F57A7F27D82268002AF8DB23E0D1F8BC
:104A0800003543F08043C1F80035C36A13F47F0FC3
:104A18001DD1D1F8003523F00043C1F80035D1F895
:104A2800003543F00043C1F80035D1F8003523F4D0
:104A38000043C1F8003500230133B3F57A7F02D86B
:104A48002268002AF8DB00205DF8044B7047D1F893
:104A5800003543F00043C1F80035F4E7D1F80035DC
:104A680043F00043C1F80035EDE7000000EB4111C9
:104A7800064AC1F81025D1F8003523F0804343F0E9
:104A88000043C1F800350020704700BF00000880CF
:104A980070B582B04C78C36B13F4807F07D00B7964
:104AA8002BB912B94B79012B11D0012A13D00B69FC
:104AB800E3B10D892B44013BB3FBF5F39BB2B3F58E
:104AC800807F14D92D020D614FF480730FE02146C9
:104AD800FFF7CCFF75E000EB4413D3F80C5525F035
:104AE8006005C3F80C5500234B71E0E70123CD782E
:104AF8001DB10D8905FB03F50D610D69C5F312059F
:104B0800374E06EAC3432B438D7A6D0705F0C0453F
:104B180000EB44142B43C4F8103512B1CB68C4F829
:104B2800143500F58066B36813F0010FD4F800352A
:104B380023F00053C4F80035D4F800350CBF4FF00B
:104B4800005500252B43C4F80035D4F80055254BF3
:104B58001D601D6825F080451D60CB78C3B1214DCF
:104B68002B6843F400432B601E4B1D6845F000453D
:104B78001D601B68C4F800351ABBCB780BBB0B69EA
:104B8800FBB1CA79032A14D8DFE802F0081E081E10
:104B9800144D2B6823F400432B60E5E70333C26A06
:104BA80092B2C3F38F039A4203D2836943F020037E
:104BB8008361CC684A780B8A002100912146FFF76F
:104BC80043FD002002B070BD0333326992B2C3F3D3
:104BD8008F039A42EDD2836943F080638361E8E7EB
:104BE8000000F81FD000002070B505460446FFF706
:104BF800E6FC10212846FFF701FD2846FFF712FDC5
:104C080000220AE004EB4211D1F8003523F080239A
:104C180043F08043C1F8003501320F2AF2D9002051
:104C2800034600E001300F2813D804EB401606F5C0
:104C3800A061D6F8002522F4004242F04042C6F8AE
:104C480000250133B3F57A7FECD80A68002AF8DB2F
:104C5800E8E74FF0FF33C5F814346B612846FFF7D7
:104C6800A8FC002070BD0020704708B521220274FE
:104C7800202242740022428282820722C28200F0ED
:104C880006FF08BD08B5A122027421224274002241
:104C9800428282820722C28200F0F9FE08BD38B53E
:104CA8000446D0F87C33D9694031FFF7EBFF05465D
:104CB80020B9D4F8D433022120469847284638BD75
:104CC80038B50546D0F87C33DC69217879B9217B81
:104CD800B1B9617BF1B9D5F87C33D86928B101F055
:104CE8001BFAD5F87C330022DA61002038BD01F0C8
:104CF8001DF82178284601F031F800232370E6E7F3
:104D0800284601F013F8217B284601F027F80023F4
:104D18002373DEE7284601F009F8617B284601F095
:104D28001DF800236373D6E7F0B585B00446012368
:104D38000222114600F040FB012803D90227384619
:104D480005B0F0BD06460146204600F02BFB07469D
:104D5800002840F0A280D4F87C53502001F0D4F908
:104D6800E861D4F87C33DD69002D00F0988050228A
:104D78000021284601F0D8F91A2303FB064393F8CB
:104D88004E3313F0800F70D16978204600F0D3FFBE
:104D98000146287094F81C336A78688902900320C9
:104DA800019094F81D030090204600F0AFFF002208
:104DB8002978204601F0DAF800231A460A2120460D
:104DC80000F0FAFA01286CD81A2303FB004393F881
:104DD8004E3313F0800F50D1AB731A2303FB0043FB
:104DE800B3F850332B831A2303FB004393F856334D
:104DF80013F0800F49D1AB731A2303FB0040B0F8BE
:104E080058332B83A97B204600F095FF6873E97B14
:104E1800204600F090FF287394F81C33AA7B697B26
:104E2800288B02900226019694F81D0300902046D4
:104E380000F06CFF94F81C33EA7B297B688B0290A6
:104E4800019694F81D030090204600F05FFF0026AD
:104E580085F84C603246697B204601F087F8324677
:104E6800297B204601F082F869E76B701A2303FB5F
:104E78000646B6F850336B8186E7EB731A2303FBBB
:104E88000043B3F850336B83ADE7EB731A2303FB8E
:104E98000040B0F858336B83B4E702274FE7022786
:104EA8004DE702274BE7704730B583B00546D0F889
:104EB8007C33DC6994F84D30012B03D0022B19D0D8
:104EC80003B030BD606A228B90420AD9637BE169E6
:104ED80001200090284600F0E0FE022384F84D30BF
:104EE800EEE7637BE1690122009282B2284600F076
:104EF800D4FEF2E7617B01F025F8012805D00228ED
:104F0800DED1012384F84D30DAE7636A228B9342BD
:104F18000AD99B1A6362E3691A44E261636A33B18E
:104F2800012384F84D30CBE700236362F6E70023C2
:104F380084F84D302846FFF7B6FFC1E7704738B50B
:104F48000546D0F87C33DC6994F84E30032B02D048
:104F5800042B09D038BD237B628B216A00F0B3FE95
:104F6800042384F84E30F5E7217B00F0EBFF01289D
:104F7800F0D1217B284600F0DFFFA36A834202D0EC
:104F8800628B824206D3002384F84E302846FFF70E
:104F9800D5FFDFE71B1AA362236A184420620323A4
:104FA80084F84E30D6E7704738B50546D0F87C33DC
:104FB800DC6994F84C30042B04D8DFE803F04C0586
:104FC800163C4300012347E0A16CFFF74EFE034661
:104FD80030B1012840D0042384F84C3001233BE051
:104FE800022384F84C30012336E004F14001FFF736
:104FF80049FE0346C0B9002384F84C30636C23F0A3
:105008007F42A16C4B6823F07F439A4201D0012371
:1050180022E0226C0B689A4201D001231CE028464A
:10502800FFF7C1FF012317E0012815D0042384F8F6
:105038004C30012310E0FFF737FF2846FFF77FFFCA
:10504800012309E0002100F0DFFD38B9002384F8CE
:105058004C30012300E00023184638BD0123FBE74C
:10506800002306E003F1E00200EB82020021516018
:1050780001330E2BF6D9002304E0C218002182F870
:105088001C110133B3F5007FF7D30023037043707D
:1050980001228270C0F8C4330276402181714376C0
:1050A80080F81C3380F81D2380F81F3380F81E33E6
:1050B8001846704708B50378DBB20B2B00D008BD43
:1050C800D0F87C33002BFAD09B699847F7E770B586
:1050D80084B004464378072B00F23081DFE813F0F0
:1050E800080048006D009E00C300E90004011D018E
:1050F800082100F00CFD18B1032821D00125DEE0BD
:1051080094F82D23A2710125657094F81C33217938
:1051180002920026019694F81D23009280222046D0
:1051280000F0F4FD94F81C336179A279029201969B
:1051380094F81D2300923246204600F0E7FDBEE0B9
:1051480094F81E330133DBB284F81E33032B03D9E2
:105158000D2323700125B2E06179204600F0FEFDA1
:105168002179204600F0FAFD002323700125A6E0EE
:10517800122100F0CCFC18B1032805D001259EE0CF
:105188000223637001259AE094F81E330133DBB2E1
:1051980084F81E33032B03D90D23237001258EE0D9
:1051A8006179204600F0DAFD2179204600F0D6FD2D
:1051B800002363702370012581E0012100F0F1FCD8
:1051C80018B1032824D0012579E0022000F0E7FE79
:1051D800012584F81C53032363702179A379029372
:1051E8000026019694F81D3300932B468022204612
:1051F80000F08CFD94F81C336179A2790292019633
:1052080094F81D2300923246204600F07FFD56E0B8
:105218000D23237000236370012550E0092100F05D
:105228008FFC18B1032805D0012548E004236370DA
:10523800012544E094F81E330133DBB284F81E33B1
:10524800032B03D90D232370012538E0617920460B
:1052580000F084FD2179204600F080FD0023637072
:10526800237001252BE0B0F83A1300F069FC18B15F
:10527800032805D0012522E00523637001251EE0DF
:1052880094F81E330133DBB284F81E33032B03D9A1
:105298000D232370012512E06179204600F05EFDA0
:1052A8002179204600F05AFD002363702370012500
:1052B80005E090F8341329B90623437001252846E0
:1052C80004B070BDFF2300F58E7200F052FC18B1D7
:1052D800032805D00125F2E7062363700125EEE7D0
:1052E800062363700125EAE790F8351319B90723F7
:1052F80043700125E3E7FF2300F58E7200F039FCC7
:1053080018B1032805D00125D9E7072363700125C3
:10531800D5E7072363700125D1E790F8361309B95B
:105328000025CCE7FF2300F58E7200F022FC05462D
:105338000028C4D0032803D00125C0E70125BEE713
:105348000025BCE7D8B170B504460E4680F8CC23DA
:105358000025C0F87C53C0F88053FFF781FE84F81D
:10536800235384F8205384F8215384F822530EB130
:10537800C4F8D463204600F0A7FD002070BD0220C9
:1053880070470A4651B1D0F880334BB9591CC0F860
:105398008013DE3340F82320002070470220704736
:1053A8000220704790F83C338B4203D980F82413CD
:1053B800002070470220704770B4064600200AE0BB
:1053C8001A2404FB056595F849439C421AD0FF2B23
:1053D80018D0441CE0B2012813D805461A2404FB4F
:1053E800006494F847438C4201D0FF29F1D11A2474
:1053F80004FB056494F848439442E1D0FF2AE8D1BD
:10540800DEE7FF2070BC704710B5044600F0D4FDFD
:105418000121204600F09CFD002010BD30B587B06A
:10542800044602238DF8173090F82133DBB2012BA4
:1054380011D02378DBB20B2B7BD8DFE813F00F00F9
:105448002100450009017A007D00E70092009C00D8
:10545800A600B700000103230370EAE794F820339D
:10546800002B66D001232370C82000F098FD204649
:1054780000F0B2FD002384F81C33C4F8C83358E0A8
:1054880094F82333012B0FD0D4F8C833B3F57A7FBF
:1054980013D994F81F330133DBB284F81F33032B7D
:1054A80008D90D23237044E0002384F81F33022316
:1054B80023703EE0002323703BE00A33C4F8C8336E
:1054C8000A2000F06CFD34E0D4F8D43313B1042181
:1054D80020469847642000F062FD204600F01EFD3B
:1054E80084F81D03052323700021204600F023FCC7
:1054F80060718021204600F01EFC0146207194F85E
:105508001C33A27902920025019594F81D2300927C
:105518008022204600F0FAFB94F81C336179A279C6
:105528000292019594F81D2300922A46204600F025
:10553800EDFB002007B030BD2046FFF7C8FD8DF811
:1055480017009DF81730002BF3D184F8243394F812
:105558003733012B02D007232370EAE7082323708F
:10556800E7E7D4F8D433002BE3D00121204698474D
:1055780008232370DDE794F83D13204600F022FB52
:105588000028D6D109232370D3E794F83F3313F0CA
:10559800200F02D10A232370CBE70121204600F017
:1055A80022FB0028C5D10A232370C2E7D4F8803330
:1055B800002BBED00023C4F87C3373B1D4F87C33FD
:1055C8000BB39B6820469847D0B906232370D4F8BC
:1055D800D433032120469847ABE7184603F1DE028F
:1055E80054F82220117994F84723914202D00133CC
:1055F800DBB2E2E7DE3054F82030C4F87C33DDE774
:105608000D23237095E70D23237092E7D4F87C339C
:1056180093B11B69204698478DF817009DF81730FD
:105628003BB19DF81730DBB2022B82D10D232370DA
:105638007FE70B2323707CE70D23237079E7D4F8E9
:105648007C33002B3FF475AF5B692046984770E7C1
:10565800002384F821332046FFF702FDD4F87C3379
:105668002BB1DB68204698470023C4F87C33D4F874
:10567800D43313B105212046984794F82233DBB27E
:10568800012B03D0204600F097FC52E7002384F852
:1056980022332046FFF7B8FE4BE7C0F8C413704723
:1056A80008B5D0F8C4330133C0F8C433FFF702FD9E
:1056B80008BD012380F823337047002380F8233383
:1056C8007047012380F82033002380F8213380F8C5
:1056D80022331846704738B50446012380F8213331
:1056E800002580F8205380F8235300F06DFC2179C1
:1056F800204600F033FB6179204600F02FFB284656
:1057080038BD10B40B7803704B7843708B78CC7825
:1057180043EA042343800B7903714B7943718B79F6
:105728008371CB79C371082A16D90B7A4A7A43EA6E
:10573800022303818B7ACA7A43EA022343810B7BD3
:105748004A7B43EA022383818B7B8373CB7BC373BE
:105758000B7C03744B7C43745DF8044B70470B78E7
:1057680003704B7843708B788370CB78C3700B7958
:1057780003714B7943718B798371CB79C3710B7A40
:10578800037270470B7803704B7843708B78837083
:10579800CB78C3700B794A7943EA022383808B79EB
:1057A800837170474378032B00D070470378023B1E
:1057B8009A4228BF1A4692B2002393420DD210B4DF
:1057C800C418A47801F8014B02339BB29342F7D373
:1057D80000230B705DF8044B704700230B70704773
:1057E80030B583B00446037E013B0A2B00F2E1800A
:1057F800DFE803F0061037435664808C9FADC40081
:10580800427900F1100100F011FA022323760120F9
:1058180003B030BD417900F095FB012805D004287C
:105828001BD0022819D00120F2E7237CE28A4AB172
:1058380013F0800F03D1052323760120E8E7032323
:105848002376E5E713F0800F03D1072323760120A1
:10585800DEE7092323760120DAE70B2323760120EC
:10586800D6E7D0F8C433C38103798289816800F010
:1058780004FA042323760120CAE7017900F062FBC9
:10588800012806D0052800F09680042804D00120BD
:10589800BEE709232376F5E70B2323760120B7E734
:1058A8004379828901250095816800F0D0F9D4F800
:1058B800C433E381062323762846A9E7417900F01B
:1058C80041FB012807D0052808D002280AD004285F
:1058D8000CD001209CE70723237699E70C23237635
:1058E800032095E705232376012091E70B232376F0
:1058F80002208DE703790022114600F0BEF9D4F8A2
:10590800C433E38108232376012081E7017900F07D
:1059180019FB012805D0042807D005284DD00120FF
:1059280076E70D232376002072E70B2323760120E8
:105938006EE74379012500950022114600F087F9AA
:10594800D4F8C433E3810A232376284660E74179F3
:1059580000F0F8FA012805D0022807D0042809D059
:10596800012055E70D232376002051E709232376EC
:1059780001204DE70B232376012049E7437E0133BD
:10598800DBB24376022B10D9D0F8D43306219847DE
:10599800002565766179204600F0E0F921792046F6
:1059A80000F0DCF92570022032E701202076A07093
:1059B8002EE701202CE703202AE7032028E70378B5
:1059C8000A8813440B800378184470472DE9F04186
:1059D80082B00C460B7803704B7843708B78C9788B
:1059E80043EA012343802379037163794371A379DF
:1059F8008371E379C371237A0372092A44D905466E
:105A08000923ADF806300026012E3DD86A88BDF876
:105A180006309A4238D90DF106012046FFF7CFFF2C
:105A280004464378042BEFD1B0461A2000FB06F059
:105A38000830284421460230FFF791FE00271A2338
:105A480003FB08539B7BBB421BD96A88BDF8063011
:105A58009A4216D90DF106012046FFF7B0FF044619
:105A68004378052BEBD101371A2000FB08F000EB37
:105A7800C7000830284421460430FFF783FEFFB2F0
:105A8800DDE70136F6B2BFE702B0BDE8F081837802
:105A9800012B03D0022B09D0012305E0816082810C
:105AA80001230376022282701846704710B5044617
:105AB800FFF796FE034630B1032804D0022806D12A
:105AC8000122A27003E00122A27000222276184669
